{
  "_format": "hh-sol-artifact-1",
  "contractName": "FitnessTracking",
  "sourceName": "contracts/FitnessTracking.sol",
  "abi": [
    {
      "inputs": [
        {
          "internalType": "address",
          "name": "_nftContractAddress",
          "type": "address"
        }
      ],
      "stateMutability": "nonpayable",
      "type": "constructor"
    },
    {
      "anonymous": false,
      "inputs": [
        {
          "indexed": true,
          "internalType": "address",
          "name": "user",
          "type": "address"
        },
        {
          "indexed": true,
          "internalType": "address",
          "name": "coach",
          "type": "address"
        }
      ],
      "name": "CoachAssigned",
      "type": "event"
    },
    {
      "anonymous": false,
      "inputs": [
        {
          "indexed": true,
          "internalType": "address",
          "name": "user",
          "type": "address"
        },
        {
          "components": [
            {
              "internalType": "uint8",
              "name": "targetBodyFatPercent",
              "type": "uint8"
            },
            {
              "internalType": "uint8",
              "name": "targetMuscleMassPercent",
              "type": "uint8"
            }
          ],
          "indexed": false,
          "internalType": "struct FitnessTracking.Goal",
          "name": "goal",
          "type": "tuple"
        }
      ],
      "name": "GoalCreated",
      "type": "event"
    },
    {
      "anonymous": false,
      "inputs": [
        {
          "indexed": true,
          "internalType": "address",
          "name": "user",
          "type": "address"
        },
        {
          "components": [
            {
              "internalType": "uint8",
              "name": "weight",
              "type": "uint8"
            },
            {
              "internalType": "uint8",
              "name": "BMI",
              "type": "uint8"
            },
            {
              "internalType": "uint8",
              "name": "bodyFat",
              "type": "uint8"
            },
            {
              "internalType": "uint8",
              "name": "visceralFat",
              "type": "uint8"
            },
            {
              "internalType": "uint8",
              "name": "bodyWater",
              "type": "uint8"
            },
            {
              "internalType": "uint8",
              "name": "muscleMass",
              "type": "uint8"
            },
            {
              "internalType": "uint8",
              "name": "metabolicAge",
              "type": "uint8"
            },
            {
              "internalType": "uint256",
              "name": "date",
              "type": "uint256"
            }
          ],
          "indexed": false,
          "internalType": "struct FitnessTracking.Measurement",
          "name": "measurement",
          "type": "tuple"
        }
      ],
      "name": "MeasurementLogged",
      "type": "event"
    },
    {
      "anonymous": false,
      "inputs": [
        {
          "indexed": true,
          "internalType": "address",
          "name": "user",
          "type": "address"
        },
        {
          "indexed": false,
          "internalType": "string",
          "name": "tokenURI",
          "type": "string"
        }
      ],
      "name": "NFTMinted",
      "type": "event"
    },
    {
      "inputs": [
        {
          "internalType": "address",
          "name": "_coachAddress",
          "type": "address"
        },
        {
          "internalType": "uint8",
          "name": "_coachId",
          "type": "uint8"
        }
      ],
      "name": "addCoach",
      "outputs": [],
      "stateMutability": "nonpayable",
      "type": "function"
    },
    {
      "inputs": [
        {
          "internalType": "address",
          "name": "_user",
          "type": "address"
        },
        {
          "internalType": "address",
          "name": "_coach",
          "type": "address"
        }
      ],
      "name": "assignCoach",
      "outputs": [],
      "stateMutability": "nonpayable",
      "type": "function"
    },
    {
      "inputs": [
        {
          "internalType": "address",
          "name": "",
          "type": "address"
        }
      ],
      "name": "coaches",
      "outputs": [
        {
          "internalType": "address",
          "name": "coachAddress",
          "type": "address"
        },
        {
          "internalType": "uint8",
          "name": "coachId",
          "type": "uint8"
        }
      ],
      "stateMutability": "view",
      "type": "function"
    },
    {
      "inputs": [
        {
          "internalType": "address",
          "name": "_user",
          "type": "address"
        }
      ],
      "name": "getGoal",
      "outputs": [
        {
          "components": [
            {
              "internalType": "uint8",
              "name": "targetBodyFatPercent",
              "type": "uint8"
            },
            {
              "internalType": "uint8",
              "name": "targetMuscleMassPercent",
              "type": "uint8"
            }
          ],
          "internalType": "struct FitnessTracking.Goal",
          "name": "",
          "type": "tuple"
        }
      ],
      "stateMutability": "view",
      "type": "function"
    },
    {
      "inputs": [
        {
          "internalType": "address",
          "name": "_user",
          "type": "address"
        }
      ],
      "name": "getMeasurements",
      "outputs": [
        {
          "components": [
            {
              "internalType": "uint8",
              "name": "weight",
              "type": "uint8"
            },
            {
              "internalType": "uint8",
              "name": "BMI",
              "type": "uint8"
            },
            {
              "internalType": "uint8",
              "name": "bodyFat",
              "type": "uint8"
            },
            {
              "internalType": "uint8",
              "name": "visceralFat",
              "type": "uint8"
            },
            {
              "internalType": "uint8",
              "name": "bodyWater",
              "type": "uint8"
            },
            {
              "internalType": "uint8",
              "name": "muscleMass",
              "type": "uint8"
            },
            {
              "internalType": "uint8",
              "name": "metabolicAge",
              "type": "uint8"
            },
            {
              "internalType": "uint256",
              "name": "date",
              "type": "uint256"
            }
          ],
          "internalType": "struct FitnessTracking.Measurement[]",
          "name": "",
          "type": "tuple[]"
        }
      ],
      "stateMutability": "view",
      "type": "function"
    },
    {
      "inputs": [
        {
          "internalType": "uint8",
          "name": "_weight",
          "type": "uint8"
        },
        {
          "internalType": "uint8",
          "name": "_BMI",
          "type": "uint8"
        },
        {
          "internalType": "uint8",
          "name": "_bodyFat",
          "type": "uint8"
        },
        {
          "internalType": "uint8",
          "name": "_visceralFat",
          "type": "uint8"
        },
        {
          "internalType": "uint8",
          "name": "_bodyWater",
          "type": "uint8"
        },
        {
          "internalType": "uint8",
          "name": "_muscleMass",
          "type": "uint8"
        },
        {
          "internalType": "uint8",
          "name": "_metabolicAge",
          "type": "uint8"
        },
        {
          "internalType": "address",
          "name": "_user",
          "type": "address"
        }
      ],
      "name": "logMeasurement",
      "outputs": [],
      "stateMutability": "nonpayable",
      "type": "function"
    },
    {
      "inputs": [],
      "name": "owner",
      "outputs": [
        {
          "internalType": "address",
          "name": "",
          "type": "address"
        }
      ],
      "stateMutability": "view",
      "type": "function"
    },
    {
      "inputs": [],
      "name": "register",
      "outputs": [],
      "stateMutability": "nonpayable",
      "type": "function"
    },
    {
      "inputs": [
        {
          "internalType": "uint8",
          "name": "_targetBodyFatPercent",
          "type": "uint8"
        },
        {
          "internalType": "uint8",
          "name": "_targetMuscleMassPercent",
          "type": "uint8"
        },
        {
          "internalType": "address",
          "name": "_user",
          "type": "address"
        }
      ],
      "name": "setGoal",
      "outputs": [],
      "stateMutability": "nonpayable",
      "type": "function"
    },
    {
      "inputs": [
        {
          "internalType": "address",
          "name": "",
          "type": "address"
        }
      ],
      "name": "userGoals",
      "outputs": [
        {
          "internalType": "uint8",
          "name": "targetBodyFatPercent",
          "type": "uint8"
        },
        {
          "internalType": "uint8",
          "name": "targetMuscleMassPercent",
          "type": "uint8"
        }
      ],
      "stateMutability": "view",
      "type": "function"
    },
    {
      "inputs": [
        {
          "internalType": "address",
          "name": "",
          "type": "address"
        },
        {
          "internalType": "uint256",
          "name": "",
          "type": "uint256"
        }
      ],
      "name": "userMeasurements",
      "outputs": [
        {
          "internalType": "uint8",
          "name": "weight",
          "type": "uint8"
        },
        {
          "internalType": "uint8",
          "name": "BMI",
          "type": "uint8"
        },
        {
          "internalType": "uint8",
          "name": "bodyFat",
          "type": "uint8"
        },
        {
          "internalType": "uint8",
          "name": "visceralFat",
          "type": "uint8"
        },
        {
          "internalType": "uint8",
          "name": "bodyWater",
          "type": "uint8"
        },
        {
          "internalType": "uint8",
          "name": "muscleMass",
          "type": "uint8"
        },
        {
          "internalType": "uint8",
          "name": "metabolicAge",
          "type": "uint8"
        },
        {
          "internalType": "uint256",
          "name": "date",
          "type": "uint256"
        }
      ],
      "stateMutability": "view",
      "type": "function"
    },
    {
      "inputs": [
        {
          "internalType": "address",
          "name": "",
          "type": "address"
        }
      ],
      "name": "userToCoach",
      "outputs": [
        {
          "internalType": "address",
          "name": "",
          "type": "address"
        }
      ],
      "stateMutability": "view",
      "type": "function"
    },
    {
      "inputs": [
        {
          "internalType": "uint256",
          "name": "",
          "type": "uint256"
        }
      ],
      "name": "users",
      "outputs": [
        {
          "internalType": "address",
          "name": "",
          "type": "address"
        }
      ],
      "stateMutability": "view",
      "type": "function"
    }
  ],
  "bytecode": "0x60803461007a57601f61104d38819003918201601f19168301916001600160401b0383118484101761007f5780849260209460405283398101031261007a57516001600160a01b0381169081900361007a5760018060a01b0319338160055416176005556006541617600655604051610fb790816100968239f35b600080fd5b634e487b7160e01b600052604160045260246000fdfe6080604052600436101561001257600080fd5b6000803560e01c80630989aad314610c3e5780631aa3a00814610bc0578063365b98b214610b7c5780634c04806614610a1b578063638d50cc146104d45780638da5cb5b146104ab5780639db48bbb146103f8578063a849f6a2146102f1578063aa6bbeda146102aa578063b3f48f831461026e578063b7fa76c914610228578063df2279b51461019e5763ffac6220146100ac57600080fd5b3461019b57604036600319011261019b576100c5610ce3565b6001600160a01b036024358181169290839003610196576100eb82600554163314610e61565b828452836020528160408520541615610142571680835260016020526040832080546001600160a01b031916831790557ff506a3d94bebcdd3b149a4e0d3590345ae308288f334bb107a42fe172e6c9aff8380a380f35b60405162461bcd60e51b815260206004820152602660248201527f4f6e6c79207265676973746572656420636f61636865732063616e206265206160448201526539b9b4b3b71760d11b6064820152608490fd5b600080fd5b80fd5b503461019b57604036600319011261019b576101b8610ce3565b6101c0610dcc565b6005546001600160a01b03906101d99082163314610e61565b80604051936101e785610e0f565b1680845260ff60208501931683528452836020526040842092511682549160ff60a01b905160a01b16916affffffffffffffffffffff60a81b161717905580f35b503461019b57602036600319011261019b5760409081906001600160a01b0361024f610ce3565b1681526003602052205460ff825191818116835260081c166020820152f35b503461019b57602036600319011261019b576020906001600160a01b039060409082610298610ce3565b16815260018452205416604051908152f35b503461019b57602036600319011261019b576040906001600160a01b039060ff908390836102d6610ce3565b1681528060205220548351928116835260a01c166020820152f35b503461019b57606036600319011261019b5761030b610dbc565b610313610dcc565b6044356001600160a01b0381811693929184900361019657838552600160205260408520541633036103f4577fb1b3a9b49fca8e705443e312958641cfcd85f5b476d01b6c65e578c3a7b3b42b916103ee916103b860ff6040519361037785610e0f565b169283815260ff8060208301941693848152888a5260036020528160408b209351168219845416178355511661ff0082549160081b169061ff001916179055565b604051916103c583610e0f565b8252602082015260405191829182919091602060ff816040840195828151168552015116910152565b0390a280f35b8380fd5b503461019b57602036600319011261019b57610412610ce3565b81602060405161042181610e0f565b82815201526001600160a01b039081168083526001602052604083205490911633149081156104a1575b501561019b57604061049d9160036020522060ff6040519161046c83610e0f565b54818116835260081c16602082015260405191829182919091602060ff816040840195828151168552015116910152565b0390f35b905033143861044b565b503461019b578060031936011261019b576005546040516001600160a01b039091168152602090f35b503461019b5761010036600319011261019b576104ef610dbc565b6104f7610dcc565b906044359160ff83168093036103f4576064359060ff8216809203610946576084359360ff85168503610a175760a43560ff81168103610a135760c4359260ff84168403610a0f5760e435966001600160a01b0388168803610a0b576001600160a01b038881168a52600160205260408a2054163303610a0b5760ff958694858094816040519b6105878d610ddc565b168b521660208a0152604089015260608801521660808601521660a08401521660c08201524260e082015260018060a01b0382168352600260205260408320805490600160401b8210156109e357906105e591600182018155610cf9565b6109f75781518154602084015161ff0060089190911b1660ff90921661ffff199091161717815560408281015182546060850151608086015160a087015160c088015166ffffffffff00001990941660109590951b62ff0000169490941760189290921b63ff000000169190911760209190911b64ff00000000161760289290921b65ff0000000000169190911760309190911b66ff0000000000001617825560e083015160019092019190915551906106a0908290610d62565b6001600160a01b038216907f1717d02fb27c0fac29e33134b44223c7002772d38a50e1c14ba3ae7c64bfdf009061010090a26001600160a01b03811682526003602052604080832090519060ff906106f783610e0f565b54818116835260081c16602082015260018060a01b0382168352600260205260408320805467ffffffffffffffff81116109e3576040519161073f60208360051b0184610e3f565b81835285526020808620869184015b83831061097257505050508051600019810190811161095e57815181101561094a579060209160051b01015160ff60408201511660ff835116101561086d575b602060ff60a081930151169201511611156107a7575080f35b60065482906001600160a01b0316803b1561085e57604051633349e71f60e21b81526001600160a01b0384166004820152600260248201526060604482015290829082908183816107fa60648201610f12565b03925af180156108625761084a575b50507f371f376692dd846fa34380a8fd44c6a140dc5cd442cd8ae5657963685f17ebed604051916020835260018060a01b031691806103ee60208201610f12565b61085390610e2b565b61085e578138610809565b5080fd5b6040513d84823e3d90fd5b6006546001600160a01b0316803b1561094657604051633349e71f60e21b81526001600160a01b0385166004820152600160248201526060604482015290859082908183816108be60648201610ea3565b03925af1801561093b5761091f575b50602060ff60a081936040518481527f371f376692dd846fa34380a8fd44c6a140dc5cd442cd8ae5657963685f17ebed600180851b0389169180610912888201610ea3565b0390a2935050505061078e565b60ff60a0819396610931602094610e2b565b96935050506108cd565b6040513d87823e3d90fd5b8480fd5b634e487b7160e01b85526032600452602485fd5b634e487b7160e01b85526011600452602485fd5b6002602060019260405161098581610ddc565b60ff86548181168352818160081c1685840152818160101c166040840152818160181c1660608401528181861c166080840152818160281c1660a084015260301c1660c08201528486015460e082015281520192019201919061074e565b634e487b7160e01b85526041600452602485fd5b634e487b7160e01b84526004849052602484fd5b8880fd5b8780fd5b8680fd5b8580fd5b503461019b576020908160031936011261019b576001600160a01b039182610a41610ce3565b16808352600193600183526040842054163314908115610b72575b501561085e5760028082526040832091825467ffffffffffffffff81116109e357859192859160405191610a95868360051b0184610e3f565b8183528583018097855286852085915b848310610af65750505050506040519380850191818652518092526040850195925b828110610ad45785870386f35b909192938261010088610ae9849a8951610d62565b0197950193929101610ac7565b968389829b9960409b98999b51610b0c81610ddc565b855460ff908181168352818160081c1685840152818160101c166040840152818160181c1660608401528181861c166080840152818160281c1660a084015260301c1660c08201528486015460e082015281520192019201919098969897959497610aa5565b9050331438610a5c565b503461019b57602036600319011261019b576004359060045482101561019b576020610ba783610d2b565b905460405160039290921b1c6001600160a01b03168152f35b503461019b578060031936011261019b57600454600160401b811015610c2a57806001610bf09201600455610d2b565b81546001600160a01b0360039290921b91821b1916339182901b17909155815260016020526040812080546001600160a01b031916905580f35b634e487b7160e01b82526041600452602482fd5b503461019b57604036600319011261019b57610c58610ce3565b6001600160a01b031681526002602052604081208054602435929083101561019b57610100610c878484610cf9565b50805490600160ff91015490604051928181168452818160081c166020850152818160101c166040850152818160181c166060850152818160201c166080850152818160281c1660a085015260301c1660c083015260e0820152f35b600435906001600160a01b038216820361019657565b8054821015610d155760005260206000209060011b0190600090565b634e487b7160e01b600052603260045260246000fd5b600454811015610d155760046000527f8a35acfbc15ff81a39ae7d344fd709f28e8600b4aa8c65c6b64bfe7fe36bd19b0190600090565b60e0809160ff8082511685528060208301511660208601528060408301511660408601528060608301511660608601528060808301511660808601528060a08301511660a086015260c08201511660c08501520151910152565b6004359060ff8216820361019657565b6024359060ff8216820361019657565b610100810190811067ffffffffffffffff821117610df957604052565b634e487b7160e01b600052604160045260246000fd5b6040810190811067ffffffffffffffff821117610df957604052565b67ffffffffffffffff8111610df957604052565b90601f8019910116810190811067ffffffffffffffff821117610df957604052565b15610e6857565b60405162461bcd60e51b8152602060048201526013602482015272596f7520617265206e6f74206f776e6572212160681b6044820152606490fd5b605081527f68747470733a2f2f676174657761792e70696e6174612e636c6f75642f69706660208201527f732f516d56486834664344637161344d476a596e4a50346e346b794b4679347660408201526f3452617665664744666737657232333760801b606082015260800190565b605081527f68747470733a2f2f676174657761792e70696e6174612e636c6f75642f69706660208201527f732f516d50717176737969374c3352334a4633525a475833533235557446574360408201526f0646e6e6c66a66a90a0e4708a90aef0b60831b60608201526080019056fea264697066735822122033a23dcf4f4021704122767a25f31a5e94decd8378958e06a64c40a9e34c513164736f6c63430008180033",
  "linkReferences": {},
  "deployedLinkReferences": {}
}