{
  "_format": "hh-sol-artifact-1",
  "contractName": "DynamicNFT",
  "sourceName": "contracts/DynamicNFT.sol",
  "abi": [
    {
      "inputs": [
        {
          "internalType": "address",
          "name": "initialOwner",
          "type": "address"
        }
      ],
      "stateMutability": "nonpayable",
      "type": "constructor"
    },
    {
      "inputs": [],
      "name": "ERC721EnumerableForbiddenBatchMint",
      "type": "error"
    },
    {
      "inputs": [
        {
          "internalType": "address",
          "name": "sender",
          "type": "address"
        },
        {
          "internalType": "uint256",
          "name": "tokenId",
          "type": "uint256"
        },
        {
          "internalType": "address",
          "name": "owner",
          "type": "address"
        }
      ],
      "name": "ERC721IncorrectOwner",
      "type": "error"
    },
    {
      "inputs": [
        {
          "internalType": "address",
          "name": "operator",
          "type": "address"
        },
        {
          "internalType": "uint256",
          "name": "tokenId",
          "type": "uint256"
        }
      ],
      "name": "ERC721InsufficientApproval",
      "type": "error"
    },
    {
      "inputs": [
        {
          "internalType": "address",
          "name": "approver",
          "type": "address"
        }
      ],
      "name": "ERC721InvalidApprover",
      "type": "error"
    },
    {
      "inputs": [
        {
          "internalType": "address",
          "name": "operator",
          "type": "address"
        }
      ],
      "name": "ERC721InvalidOperator",
      "type": "error"
    },
    {
      "inputs": [
        {
          "internalType": "address",
          "name": "owner",
          "type": "address"
        }
      ],
      "name": "ERC721InvalidOwner",
      "type": "error"
    },
    {
      "inputs": [
        {
          "internalType": "address",
          "name": "receiver",
          "type": "address"
        }
      ],
      "name": "ERC721InvalidReceiver",
      "type": "error"
    },
    {
      "inputs": [
        {
          "internalType": "address",
          "name": "sender",
          "type": "address"
        }
      ],
      "name": "ERC721InvalidSender",
      "type": "error"
    },
    {
      "inputs": [
        {
          "internalType": "uint256",
          "name": "tokenId",
          "type": "uint256"
        }
      ],
      "name": "ERC721NonexistentToken",
      "type": "error"
    },
    {
      "inputs": [
        {
          "internalType": "address",
          "name": "owner",
          "type": "address"
        },
        {
          "internalType": "uint256",
          "name": "index",
          "type": "uint256"
        }
      ],
      "name": "ERC721OutOfBoundsIndex",
      "type": "error"
    },
    {
      "inputs": [
        {
          "internalType": "address",
          "name": "owner",
          "type": "address"
        }
      ],
      "name": "OwnableInvalidOwner",
      "type": "error"
    },
    {
      "inputs": [
        {
          "internalType": "address",
          "name": "account",
          "type": "address"
        }
      ],
      "name": "OwnableUnauthorizedAccount",
      "type": "error"
    },
    {
      "anonymous": false,
      "inputs": [
        {
          "indexed": true,
          "internalType": "address",
          "name": "owner",
          "type": "address"
        },
        {
          "indexed": true,
          "internalType": "address",
          "name": "approved",
          "type": "address"
        },
        {
          "indexed": true,
          "internalType": "uint256",
          "name": "tokenId",
          "type": "uint256"
        }
      ],
      "name": "Approval",
      "type": "event"
    },
    {
      "anonymous": false,
      "inputs": [
        {
          "indexed": true,
          "internalType": "address",
          "name": "owner",
          "type": "address"
        },
        {
          "indexed": true,
          "internalType": "address",
          "name": "operator",
          "type": "address"
        },
        {
          "indexed": false,
          "internalType": "bool",
          "name": "approved",
          "type": "bool"
        }
      ],
      "name": "ApprovalForAll",
      "type": "event"
    },
    {
      "anonymous": false,
      "inputs": [
        {
          "indexed": false,
          "internalType": "uint256",
          "name": "_fromTokenId",
          "type": "uint256"
        },
        {
          "indexed": false,
          "internalType": "uint256",
          "name": "_toTokenId",
          "type": "uint256"
        }
      ],
      "name": "BatchMetadataUpdate",
      "type": "event"
    },
    {
      "anonymous": false,
      "inputs": [
        {
          "indexed": false,
          "internalType": "uint256",
          "name": "_tokenId",
          "type": "uint256"
        }
      ],
      "name": "MetadataUpdate",
      "type": "event"
    },
    {
      "anonymous": false,
      "inputs": [
        {
          "indexed": true,
          "internalType": "address",
          "name": "previousOwner",
          "type": "address"
        },
        {
          "indexed": true,
          "internalType": "address",
          "name": "newOwner",
          "type": "address"
        }
      ],
      "name": "OwnershipTransferred",
      "type": "event"
    },
    {
      "anonymous": false,
      "inputs": [
        {
          "indexed": true,
          "internalType": "address",
          "name": "from",
          "type": "address"
        },
        {
          "indexed": true,
          "internalType": "address",
          "name": "to",
          "type": "address"
        },
        {
          "indexed": true,
          "internalType": "uint256",
          "name": "tokenId",
          "type": "uint256"
        }
      ],
      "name": "Transfer",
      "type": "event"
    },
    {
      "inputs": [],
      "name": "MAX_SUPPLY_BODY_FAT",
      "outputs": [
        {
          "internalType": "uint256",
          "name": "",
          "type": "uint256"
        }
      ],
      "stateMutability": "view",
      "type": "function"
    },
    {
      "inputs": [],
      "name": "MAX_SUPPLY_FIRST_NFT",
      "outputs": [
        {
          "internalType": "uint256",
          "name": "",
          "type": "uint256"
        }
      ],
      "stateMutability": "view",
      "type": "function"
    },
    {
      "inputs": [],
      "name": "MAX_SUPPLY_MUSCLE_MASS",
      "outputs": [
        {
          "internalType": "uint256",
          "name": "",
          "type": "uint256"
        }
      ],
      "stateMutability": "view",
      "type": "function"
    },
    {
      "inputs": [
        {
          "internalType": "address",
          "name": "to",
          "type": "address"
        },
        {
          "internalType": "uint256",
          "name": "tokenId",
          "type": "uint256"
        }
      ],
      "name": "approve",
      "outputs": [],
      "stateMutability": "nonpayable",
      "type": "function"
    },
    {
      "inputs": [
        {
          "internalType": "address",
          "name": "owner",
          "type": "address"
        }
      ],
      "name": "balanceOf",
      "outputs": [
        {
          "internalType": "uint256",
          "name": "",
          "type": "uint256"
        }
      ],
      "stateMutability": "view",
      "type": "function"
    },
    {
      "inputs": [
        {
          "internalType": "uint256",
          "name": "tokenId",
          "type": "uint256"
        }
      ],
      "name": "getApproved",
      "outputs": [
        {
          "internalType": "address",
          "name": "",
          "type": "address"
        }
      ],
      "stateMutability": "view",
      "type": "function"
    },
    {
      "inputs": [
        {
          "internalType": "address",
          "name": "owner",
          "type": "address"
        },
        {
          "internalType": "address",
          "name": "operator",
          "type": "address"
        }
      ],
      "name": "isApprovedForAll",
      "outputs": [
        {
          "internalType": "bool",
          "name": "",
          "type": "bool"
        }
      ],
      "stateMutability": "view",
      "type": "function"
    },
    {
      "inputs": [],
      "name": "name",
      "outputs": [
        {
          "internalType": "string",
          "name": "",
          "type": "string"
        }
      ],
      "stateMutability": "view",
      "type": "function"
    },
    {
      "inputs": [],
      "name": "owner",
      "outputs": [
        {
          "internalType": "address",
          "name": "",
          "type": "address"
        }
      ],
      "stateMutability": "view",
      "type": "function"
    },
    {
      "inputs": [
        {
          "internalType": "uint256",
          "name": "tokenId",
          "type": "uint256"
        }
      ],
      "name": "ownerOf",
      "outputs": [
        {
          "internalType": "address",
          "name": "",
          "type": "address"
        }
      ],
      "stateMutability": "view",
      "type": "function"
    },
    {
      "inputs": [],
      "name": "renounceOwnership",
      "outputs": [],
      "stateMutability": "nonpayable",
      "type": "function"
    },
    {
      "inputs": [
        {
          "internalType": "address",
          "name": "to",
          "type": "address"
        },
        {
          "internalType": "uint256",
          "name": "tokenId",
          "type": "uint256"
        },
        {
          "internalType": "string",
          "name": "tokenType",
          "type": "string"
        }
      ],
      "name": "safeMint",
      "outputs": [],
      "stateMutability": "nonpayable",
      "type": "function"
    },
    {
      "inputs": [
        {
          "internalType": "address",
          "name": "from",
          "type": "address"
        },
        {
          "internalType": "address",
          "name": "to",
          "type": "address"
        },
        {
          "internalType": "uint256",
          "name": "tokenId",
          "type": "uint256"
        }
      ],
      "name": "safeTransferFrom",
      "outputs": [],
      "stateMutability": "nonpayable",
      "type": "function"
    },
    {
      "inputs": [
        {
          "internalType": "address",
          "name": "from",
          "type": "address"
        },
        {
          "internalType": "address",
          "name": "to",
          "type": "address"
        },
        {
          "internalType": "uint256",
          "name": "tokenId",
          "type": "uint256"
        },
        {
          "internalType": "bytes",
          "name": "data",
          "type": "bytes"
        }
      ],
      "name": "safeTransferFrom",
      "outputs": [],
      "stateMutability": "nonpayable",
      "type": "function"
    },
    {
      "inputs": [
        {
          "internalType": "address",
          "name": "operator",
          "type": "address"
        },
        {
          "internalType": "bool",
          "name": "approved",
          "type": "bool"
        }
      ],
      "name": "setApprovalForAll",
      "outputs": [],
      "stateMutability": "nonpayable",
      "type": "function"
    },
    {
      "inputs": [
        {
          "internalType": "bytes4",
          "name": "interfaceId",
          "type": "bytes4"
        }
      ],
      "name": "supportsInterface",
      "outputs": [
        {
          "internalType": "bool",
          "name": "",
          "type": "bool"
        }
      ],
      "stateMutability": "view",
      "type": "function"
    },
    {
      "inputs": [],
      "name": "symbol",
      "outputs": [
        {
          "internalType": "string",
          "name": "",
          "type": "string"
        }
      ],
      "stateMutability": "view",
      "type": "function"
    },
    {
      "inputs": [
        {
          "internalType": "uint256",
          "name": "index",
          "type": "uint256"
        }
      ],
      "name": "tokenByIndex",
      "outputs": [
        {
          "internalType": "uint256",
          "name": "",
          "type": "uint256"
        }
      ],
      "stateMutability": "view",
      "type": "function"
    },
    {
      "inputs": [
        {
          "internalType": "address",
          "name": "owner",
          "type": "address"
        },
        {
          "internalType": "uint256",
          "name": "index",
          "type": "uint256"
        }
      ],
      "name": "tokenOfOwnerByIndex",
      "outputs": [
        {
          "internalType": "uint256",
          "name": "",
          "type": "uint256"
        }
      ],
      "stateMutability": "view",
      "type": "function"
    },
    {
      "inputs": [
        {
          "internalType": "uint256",
          "name": "tokenId",
          "type": "uint256"
        }
      ],
      "name": "tokenURI",
      "outputs": [
        {
          "internalType": "string",
          "name": "",
          "type": "string"
        }
      ],
      "stateMutability": "view",
      "type": "function"
    },
    {
      "inputs": [],
      "name": "totalSupply",
      "outputs": [
        {
          "internalType": "uint256",
          "name": "",
          "type": "uint256"
        }
      ],
      "stateMutability": "view",
      "type": "function"
    },
    {
      "inputs": [
        {
          "internalType": "address",
          "name": "from",
          "type": "address"
        },
        {
          "internalType": "address",
          "name": "to",
          "type": "address"
        },
        {
          "internalType": "uint256",
          "name": "tokenId",
          "type": "uint256"
        }
      ],
      "name": "transferFrom",
      "outputs": [],
      "stateMutability": "nonpayable",
      "type": "function"
    },
    {
      "inputs": [
        {
          "internalType": "address",
          "name": "newOwner",
          "type": "address"
        }
      ],
      "name": "transferOwnership",
      "outputs": [],
      "stateMutability": "nonpayable",
      "type": "function"
    }
  ],
  "bytecode": "0x6080346200039657601f196001600160401b03601f62001de638819003828101851686018481118782101762000380578692829160405283396020958691810103126200039657516001600160a01b039290838116036200039657620000646200039b565b91600a835269111e5b985b5a58d3919560b21b86840152620000856200039b565b9560038752624d544b60e81b8188015283519583871162000380576000968754956001968781811c9116801562000375575b8582101462000361579081868493116200030e575b508490868311600114620002ad578a92620002a1575b5050600019600383901b1c191690861b1787555b87519384116200028d5784548581811c9116801562000282575b838210146200026e5783811162000226575b5081928411600114620001c057505084958293949592620001b4575b5050600019600383901b1c191690821b1790555b600b8054731b04132d7f2427cb160ab57d0829c48d93e3fc916001600160a01b03198216811790925560405193919216907f8be0079c531659141344cd1fd0a4f28419497f9722a3daafe3b4186f6b6457e09080a3611a2a9081620003bc8239f35b0151905038806200013e565b8392919216968487528287209287905b8982106200020e575050838596979810620001f4575b505050811b01905562000152565b015160001960f88460031b161c19169055388080620001e6565b808785968294968601518155019501930190620001d0565b8588528288208480870160051c82019285881062000264575b0160051c019086905b8281106200025857505062000122565b89815501869062000248565b925081926200023f565b634e487b7160e01b88526022600452602488fd5b90607f169062000110565b634e487b7160e01b87526041600452602487fd5b015190503880620000e2565b9084899416918b8052868c20928c5b88828210620002f75750508411620002dd575b505050811b018755620000f6565b015160001960f88460031b161c19169055388080620002cf565b8385015186558c97909501949384019301620002bc565b909150898052848a208680850160051c82019287861062000357575b918a91869594930160051c01915b82811062000348575050620000cc565b8c81558594508a910162000338565b925081926200032a565b634e487b7160e01b8a52602260045260248afd5b90607f1690620000b7565b634e487b7160e01b600052604160045260246000fd5b600080fd5b60408051919082016001600160401b03811183821017620003805760405256fe608060408181526004908136101561001657600080fd5b600091823560e01c93846301ffc9a7146110865750836306fdde0314610fd5578363081812fc14610f9b578363095ea7b314610ec057836318160ddd14610ea257836323b872dd14610e8a5783632f745c5914610e0757836342842e0e14610dd95783634f6ccce714610d865783636352211e14610d5657836370a0823114610d2a578363715018a614610ccd5783638da5cb5b14610ca557836395d89b4114610bb75783639cdfc0b814610124578363a22cb46514610b17578363b88d4fde14610aa8578363bb8bc7e214610124578363c87b56dd146109b3578363cd279c7c1461020c578363e985e9c5146101bb578363f2fde38b146101295750505063fe15e0df1461012457600080fd5b6111cb565b346101b75760203660031901126101b757610142611165565b9061014b61170e565b6001600160a01b039182169283156101a1575050600b54826bffffffffffffffffffffffff60a01b821617600b55167f8be0079c531659141344cd1fd0a4f28419497f9722a3daafe3b4186f6b6457e08380a380f35b51631e4fbdf760e01b8152908101849052602490fd5b8280fd5b503461020857806003193601126102085760ff816020936101da611165565b6101e2611180565b6001600160a01b0391821683526005875283832091168252855220549151911615158152f35b5080fd5b346101b75760603660031901126101b757610225611165565b90602480359167ffffffffffffffff906044358281116109af57366023820112156109af5761025c9036908581850135910161128f565b9161026561170e565b825193602096878501958620610279611641565b89815191012014806109a3575b801561097d575b8015610957575b156109175788516102a4816111e7565b8a81526001600160a01b038281169290831561090157908c8c96959493928b825260028d5287822054168c8c8215998a1594856108ce575b88815260038452888282209c60019d8e815401905584835260028652838320826bffffffffffffffffffffffff60a01b8254161790558482887fddf252ad1be2c89b69c2b068fc378daa952ba7f163c4a11628f55a4df523b3ef8680a415610841575060096008549485948352522055600160401b81101561082e57906103868d61036d848c8a96016008556115bb565b90919082549060031b91821b91600019901b1916179055565b036107e3575b6107cd573b61069f575b5050868a52600f8852888a2093855192831161068e5750506103b883546112c6565b601f8111610648575b5086601f82116001146105eb57819282918b936105e0575b501b916000199060031b1c19161790555b805182206103f6611641565b8051908601200361048f5750507f732f516d557a593869636652564151626550614c5755506677644a4e42377241837f68747470733a2f2f676174657761792e70696e6174612e636c6f75642f69706661047d95519461045586611219565b605086528501528301526f7355546445443134586f796d7879503360801b606083015261187e565b610488600c546116ae565b600c555b80f35b8051822061049b611665565b805190860120036105335750507f732f516d56486834664344637161344d476a596e4a50346e346b794b46793476837f68747470733a2f2f676174657761792e70696e6174612e636c6f75642f6970666105229551946104fa86611219565b605086528501528301526f3452617665664744666737657232333760801b606083015261187e565b61052d600d546116ae565b600d5580f35b51902061053e611688565b83815191012014610550575b50505080f35b7f732f516d50717176737969374c3352334a4633525a4758335332355574465743837f68747470733a2f2f676174657761792e70696e6174612e636c6f75642f6970666105ca9551946105a286611219565b605086528501528301526f0646e6e6c66a66a90a0e4708a90aef0b60831b606083015261187e565b6105d5600e546116ae565b600e5581808061054a565b86015192508b6103d9565b838a52878a209082601f1981168c5b8b878383106106315750505010610618575b5050811b0190556103ea565b85015160001960f88460031b161c19169055898061060c565b858b015187559095019493840193869350016105fa565b838a52878a20601f830160051c810191898410610684575b601f0160051c019083905b8281106106795750506103c1565b8b815501839061066b565b9091508190610660565b634e487b7160e01b8b526041905289fd5b9488958a8c9a84869f859f819c99979f9d9a986106e983925197889687958694630a85bd0160e11b9c8d875233908701528501526044840152608060648401526084830190611125565b03925af1889181610789575b5061075157505050505050503d600014610749573d61071381611273565b9061072085519283611251565b81528091833d92013e5b80519182610746575050505191633250574960e11b8352820152fd5b01fd5b50606061072a565b63ffffffff60e09d9496999b9395989d9c979a9c1b160361077457508a80610396565b8951633250574960e11b815280860191909152fd5b9091508981813d83116107c6575b6107a18183611251565b810103126107c257516001600160e01b0319811681036107c257908e6106f5565b8880fd5b503d610797565b8b516339e3563760e11b81528088018e90528490fd5b6107ec82611608565b600019810190811161081c578d8f60078f8f8984526006825284842086855282528085852055835252205561038c565b634e487b7160e01b8f5260118952858ffd5b50634e487b7160e01b8f5260418952858ffd5b9493858594929403610857575b50505050610386565b61086085611608565b918085526007825283852054838103610897575b508452838381205584845260068152828420918452528120558f8f8f8f9061084e565b8686526006835284862084875283528486205487875260068452858720828852845280868820558652600783528486205538610874565b600083815260046020526040902080546001600160a01b03191690558481526003845281812080546000190190556102dc565b8b51633250574960e11b81528088018e90528590fd5b6064848984818d519362461bcd60e51b85528401528201527f4d617820737570706c79207265616368656420666f72207468697320747970656044820152fd5b5084518620610964611688565b89815191012014801561029457506014600e5410610294565b508451862061098a611665565b89815191012014801561028d57506014600d541061028d565b506014600c5410610286565b8780fd5b90346101b75760209182600319360112610aa457356109d1816116d3565b508352600a82528083209281518094829080546109ed816112c6565b9182855260019188600182169182600014610a7d575050600114610a3f575b505050610a3b939291610a20910386611251565b8151610a2b816111e7565b5251928284938452830190611125565b0390f35b8552868520879350859291905b828410610a655750505082010181610a20610a3b610a0c565b8054848b018601528995508894909301928101610a4c565b60ff19168782015293151560051b86019093019350849250610a209150610a3b9050610a0c565b8380fd5b90503461020857608036600319011261020857610ac3611165565b610acb611180565b6044359060643567ffffffffffffffff8111610b135736602382011215610b135761048c94816024610b029336930135910161128f565b92610b0e838383611300565b61173a565b8580fd5b90346101b757806003193601126101b757610b30611165565b9060243591821515809303610bb3576001600160a01b0316928315610b9e5750338452600560205280842083855260205280842060ff1981541660ff8416179055519081527f17307eab39ab6107e8899845ad3d59bd9653f200f220920489ca2b5937696c3160203392a380f35b836024925191630b61174360e31b8352820152fd5b8480fd5b509034610ca25780600319360112610ca257815191828260019360015494610bde866112c6565b9182855260209687600182169182600014610c7b575050600114610c1f575b505050610a3b9291610c10910385611251565b51928284938452830190611125565b9190869350600183527fb10e2d527612073b26eecdfd717e6a320cf44b4afac2b0732d9fcbe2b7fa0cf65b828410610c635750505082010181610c10610a3b610bfd565b8054848a018601528895508794909301928101610c4a565b60ff19168782015293151560051b86019093019350849250610c109150610a3b9050610bfd565b80fd5b5034610208578160031936011261020857600b5490516001600160a01b039091168152602090f35b8234610ca25780600319360112610ca257610ce661170e565b600b80546001600160a01b0319811690915581906001600160a01b03167f8be0079c531659141344cd1fd0a4f28419497f9722a3daafe3b4186f6b6457e08280a380f35b503461020857602036600319011261020857602090610d4f610d4a611165565b611608565b9051908152f35b9134610ca2576020366003190112610ca25750610d75602092356116d3565b90516001600160a01b039091168152f35b346101b75760203660031901126101b757803592600854841015610dbe57602083610db0866115bb565b91905490519160031b1c8152f35b6044939192519263295f44f760e21b84528301526024820152fd5b50346102085761048c90610dec36611196565b91925192610df9846111e7565b858452610b0e838383611300565b9134610ca25781600319360112610ca257610e20611165565b9260243590610e2e85611608565b821015610e5e57506001600160a01b03909316815260066020908152828220938252928352819020549051908152f35b925163295f44f760e21b81526001600160a01b0390941692840192835260208301525081906040010390fd5b8234610ca25761048c610e9c36611196565b91611300565b50346102085781600319360112610208576020906008549051908152f35b90346101b757806003193601126101b757610ed9611165565b91602435610ee6816116d3565b33151580610f88575b80610f5f575b610f49576001600160a01b039485169482918691167f8c5be1e5ebec7d5bd14f71427d1e84f3dd0314c0f7b2291e5b200ac8c7c3b9258880a48452602052822080546001600160a01b031916909117905580f35b835163a9fbf51f60e01b81523381850152602490fd5b506001600160a01b03811686526005602090815284872033885290528386205460ff1615610ef5565b506001600160a01b038116331415610eef565b346101b75760203660031901126101b757918260209335610fbb816116d3565b50825283528190205490516001600160a01b039091168152f35b509034610ca25780600319360112610ca25781519182828354610ff7816112c6565b9081845260209560019187600182169182600014610c7b57505060011461102b57505050610a3b9291610c10910385611251565b91908693508280527f290decd9548b62a8d60345a988386fc84ba6bc95484008f6362f93160ef3e5635b82841061106e5750505082010181610c10610a3b610bfd565b8054848a018601528895508794909301928101611055565b9150346101b75760203660031901126101b7573563ffffffff60e01b81168091036101b75760209250632483248360e11b81149081156110c8575b5015158152f35b63780e9d6360e01b8114915081156110e2575b50836110c1565b6380ac58cd60e01b811491508115611114575b8115611103575b50836110db565b6301ffc9a760e01b149050836110fc565b635b5e139f60e01b811491506110f5565b919082519283825260005b848110611151575050826000602080949584010152601f8019910116010190565b602081830181015184830182015201611130565b600435906001600160a01b038216820361117b57565b600080fd5b602435906001600160a01b038216820361117b57565b606090600319011261117b576001600160a01b0390600435828116810361117b5791602435908116810361117b579060443590565b3461117b57600036600319011261117b57602060405160148152f35b6020810190811067ffffffffffffffff82111761120357604052565b634e487b7160e01b600052604160045260246000fd5b6080810190811067ffffffffffffffff82111761120357604052565b6040810190811067ffffffffffffffff82111761120357604052565b90601f8019910116810190811067ffffffffffffffff82111761120357604052565b67ffffffffffffffff811161120357601f01601f191660200190565b92919261129b82611273565b916112a96040519384611251565b82948184528183011161117b578281602093846000960137010152565b90600182811c921680156112f6575b60208310146112e057565b634e487b7160e01b600052602260045260246000fd5b91607f16916112d5565b6001600160a01b03828116939184156115a257600094838652602095600287526040968488832054169633151580611514575b50871580156114e1575b84845260038352898420805460010190558784526002835289842080546001600160a01b0319168617905587858a7fddf252ad1be2c89b69c2b068fc378daa952ba7f163c4a11628f55a4df523b3ef8780a4156114655760085487845260098352808a852055600160401b811015611451578761036d8260016113c394016008556115bb565b8388036113ff575b5050505016928383036113de5750505050565b6064945051926364283d7b60e01b8452600484015260248301526044820152fd5b61140890611608565b60001981019390841161143d5782916007918a94526006815283832085845281528784842055878352522055388080806113cb565b634e487b7160e01b83526011600452602483fd5b634e487b7160e01b84526041600452602484fd5b8784146113c35761147588611608565b87845260078352898420548181036114aa575b50878452838a81205588845260068352898420908452825282898120556113c3565b898552600684528a852082865284528a8520548a8652600685528b86208287528552808c8720558552600784528a85205538611488565b600088815260046020526040902080546001600160a01b031916905588845260038352898420805460001901905561133d565b80611561575b156115255738611333565b888789611542576024915190637e27328960e01b82526004820152fd5b905163177e802f60e01b81523360048201526024810191909152604490fd5b503388148015611586575b8061151a57508683526004825233868a852054161461151a565b5087835260058252888320338452825260ff898420541661156c565b604051633250574960e11b815260006004820152602490fd5b6008548110156115f25760086000527ff3f7a9fe364faab93b216da50a3214154f22a0a2b415b23a84c8169e8b636ee30190600090565b634e487b7160e01b600052603260045260246000fd5b6001600160a01b0316801561162857600052600360205260406000205490565b6040516322718ad960e21b815260006004820152602490fd5b6040519061164e82611235565b6008825267199a5c9cdd13919560c21b6020830152565b6040519061167282611235565b6007825266189bd91e51985d60ca1b6020830152565b6040519061169582611235565b600a8252696d7573636c654d61737360b01b6020830152565b60001981146116bd5760010190565b634e487b7160e01b600052601160045260246000fd5b6000818152600260205260409020546001600160a01b03169081156116f6575090565b60249060405190637e27328960e01b82526004820152fd5b600b546001600160a01b0316330361172257565b60405163118cdaa760e01b8152336004820152602490fd5b813b611747575b50505050565b604051630a85bd0160e11b8082523360048301526001600160a01b03928316602483015260448201949094526080606482015260209592909116939092908390611795906084830190611125565b039285816000958187895af184918161183e575b50611809575050503d600014611801573d6117c381611273565b906117d16040519283611251565b81528091843d92013e5b805192836117fc57604051633250574960e11b815260048101849052602490fd5b019050fd5b5060606117db565b919450915063ffffffff60e01b1603611826575038808080611741565b60249060405190633250574960e11b82526004820152fd5b9091508681813d8311611877575b6118568183611251565b81010312610bb357516001600160e01b031981168103610bb35790386117a9565b503d61184c565b919091600090808252602091600a8352604081209085519067ffffffffffffffff82116119e0576118af83546112c6565b601f811161199d575b508490601f831160011461191957907ff8e1a15aba9398e019f0b49df1a4fde98ee17ae345cb5f6b5e2c27f5033e8ce796978361190e575b50508160011b916000199060031b1c19161790555b604051908152a1565b0151905038806118f0565b9196601f198816848452868420935b81811061198657509160019391897ff8e1a15aba9398e019f0b49df1a4fde98ee17ae345cb5f6b5e2c27f5033e8ce7999a941061196d575b505050811b019055611905565b015160001960f88460031b161c19169055388080611960565b929387600181928786015181550195019301611928565b838252858220601f840160051c8101918785106119d6575b601f0160051c01905b8181106119cb57506118b8565b8281556001016119be565b90915081906119b5565b634e487b7160e01b81526041600452602490fdfea2646970667358221220c79e125149143e2d0d72243e6104660a56176fd4adf437c1d8934477cea6646d64736f6c63430008180033",
  "linkReferences": {},
  "deployedLinkReferences": {}
}